:100000000C945D000C9485000C9485000C94850084
:100010000C9485000C9485000C9485000C9485004C
:100020000C9485000C9485000C9485000C9485003C
:100030000C9485000C9485000C9485000C9485002C
:100040000C94A5050C9485000C9415060C94EF05F2
:100050000C9485000C9485000C9485000C9485000C
:100060000C9486040C9485000000000024002700F6
:100070002A0000000000250028002B0004040404CE
:100080000404040402020202020203030303030342
:10009000010204081020408001020408102001021F
:1000A00004081020000000080002010000030407FB
:1000B0000000000000000000470611241FBECFEF23
:1000C000D8E0DEBFCDBF11E0A0E0B1E0E2EEF0E1AC
:1000D00002C005900D92A834B107D9F722E0A8E438
:1000E000B1E001C01D92AE3BB207E1F710E0CDE5F3
:1000F000D0E004C02197FE010E946908CC35D107E9
:10010000C9F70E948F060C946F080C94000085EDCF
:100110008093BC008091BC0084FDFCCF1092E30171
:1001200008952091BD01260F3327331F2132310559
:10013000ECF42091E301FC0190E080E0243069F0D0
:1001400082E00895A091BD012191AC0145565E4F1A
:10015000A40FB52FB11D2C930196861798F38091AB
:10016000BD01680F6093BD0180E0089581E00895AE
:10017000089508950895E091980180919701E817F6
:1001800030F4F0E0E958FE4F808190E008958FEF61
:100190009FEF089590919801809197012FEF3FEF85
:1001A000981748F4E92FF0E0E958FE4F208130E03D
:1001B0009F5F90939801C901089580919701909154
:1001C0009801891B990B0895CF92DF92EF92FF92CD
:1001D0000F931F93CF93DF937C01CB018A01209172
:1001E0007601222389F0EB016B01C40ED51ECC15DC
:1001F000DD0569F06991D701ED91FC910190F081E5
:10020000E02DC7010995F3CF642F0E949100C8012A
:10021000DF91CF911F910F91FF90EF90DF90CF90E2
:100220000895CF93DF931F92CDB7DEB769832091F6
:1002300076012223F9F020919901203258F021E033
:1002400030E0FC013383228390E080E00F90DF9167
:10025000CF91089580919A01E82FF0E0EA5AFE4F7D
:10026000998190838F5F80939A018093990181E0B7
:1002700090E0ECCF61E0CE0101960E949100F7CFB3
:1002800090E0FC01EC55FF4F2491FC01E057FF4F3B
:100290003491FC01E458FF4FE491EE23C9F022238E
:1002A00039F0233001F1A8F4213019F1223029F17D
:1002B000F0E0EE0FFF1FEE58FF4FA591B4918FB7FE
:1002C000F894EC91611126C030953E233C938FBF8A
:1002D00008952730A9F02830C9F0243049F78091DB
:1002E00080008F7D03C0809180008F778093800095
:1002F000DFCF84B58F7784BDDBCF84B58F7DFBCF17
:100300008091B0008F778093B000D2CF8091B00001
:100310008F7DF9CF3E2BDACF3FB7F8948091520111
:1003200090915301A0915401B091550126B5A89B1D
:1003300005C02F3F19F00196A11DB11D3FBFBA2F77
:10034000A92F982F8827BC01CD01620F711D811D37
:10035000911D42E0660F771F881F991F4A95D1F7BC
:1003600008958F929F92AF92BF92CF92DF92EF92B9
:10037000FF924B015C010E948C016B017C010E9489
:100380008C016C197D098E099F09683E73408105B7
:100390009105A8F321E0821A9108A108B10888EE1E
:1003A000C80E83E0D81EE11CF11C81149104A10445
:1003B000B10429F7FF90EF90DF90CF90BF90AF90FE
:1003C0009F908F900895AF92BF92CF92DF92EF925D
:1003D000FF920F931F93CF93DF936C017B018B01EF
:1003E000040F151FEB015E01AE18BF08C017D1073F
:1003F00059F06991D601ED91FC910190F081E02DC9
:10040000C6010995892B79F7C501DF91CF911F911D
:100410000F91FF90EF90DF90CF90BF90AF90089535
:10042000FC01538D448D252F30E0842F90E0821BFA
:10043000930B541710F0CF96089501970895FC017F
:10044000918D828D981761F0A28DAE0FBF2FB11DD7
:100450005D968C91928D9F5F9F73928F90E008952F
:100460008FEF9FEF0895FC01918D828D981731F0E9
:10047000828DE80FF11D858D90E008958FEF9FEF3D
:100480000895FC01918D228D892F90E0805C9F4F13
:10049000821B91098F739927089585E192E00E944C
:1004A000410221E0892B09F420E0822F089580E0A9
:1004B00090E0892B29F00E944D0281110C940000DC
:1004C0000895FC01A48DA80FB92FB11DA35ABF4FE9
:1004D0002C91848D90E001968F739927848FA68943
:1004E000B7892C93A089B1898C91837080648C9397
:1004F000938D848D981306C00288F389E02D808146
:100500008F7D80830895EF92FF920F931F93CF9377
:10051000DF93EC0181E0888F9B8D8C8D98131AC03E
:10052000E889F989808185FF15C09FB7F894EE8925
:10053000FF896083E889F989808183708064808382
:100540009FBF81E090E0DF91CF911F910F91FF90CD
:10055000EF900895F62E0B8D10E00F5F1F4F0F7375
:100560001127E02E8C8D8E110CC00FB607FCFACF30
:10057000E889F989808185FFF5CFCE010E9461026B
:10058000F1CFEB8DEC0FFD2FF11DE35AFF4FF08201
:100590009FB7F8940B8FEA89FB8980818062CFCF67
:1005A000CF93DF93EC01888D8823B9F0AA89BB89AA
:1005B000E889F9898C9185FD03C0808186FD0DC095
:1005C0000FB607FCF7CF8C9185FFF2CF808185FFB6
:1005D000EDCFCE010E946102E9CFDF91CF91089566
:1005E000CF93FC01C48121E020937601C0934801A0
:1005F00010929A01109299018385682B89E092E00C
:100600000E94110190919901913208F03FC08091B0
:10061000E3018111FCCF82E08093E30181E08093CC
:10062000E5018FEF8093E20110920702909306029A
:10063000A6E5B1E0E6EEF1E080E098132FC010925D
:10064000080280910802CC0FC82BC0930802809149
:10065000E401813039F51092E40180910802809321
:10066000BB008091BC0083FDF8CF85EC8093BC007B
:100670008091E3018230E1F38091E2018F3F31F01C
:100680008091E201803211F08091E20110929A0192
:100690001092990110927601CF9108952D91219396
:1006A0008F5FCBCF85EEE2CF089590E080E0089594
:1006B000FB0101900020E9F73197AF01461B570B72
:1006C000DC01ED91FC910280F381E02D09948F9281
:1006D0009F92AF92BF92EF92FF920F931F93CF938F
:1006E000DF93CDB7DEB7A1970FB6F894DEBF0FBE8C
:1006F000CDBF7C01FA01CB0119A2223008F42AE017
:100700008E010F5D1F4F822E912CB12CA12CBF01A9
:10071000A50194010E944708F901CA016A300CF54D
:10072000605DD8016E938D01232B242B252B79F747
:1007300090E080E0109721F0BD01C7010E945803AE
:10074000A1960FB6F894DEBF0FBECDBFDF91CF915B
:100750001F910F91FF90EF90BF90AF909F908F905F
:100760000895695CDECF0F931F93CF938C01C62F42
:100770000E94F0026C2F6460C8010E94F0026C2F8E
:100780006B7FC8010E94F00283EC90E00197F1F7C3
:10079000CF911F910F9108950F931F93CF93DF93E4
:1007A0008C01D62FC42F607F642B0E94B30380E19D
:1007B000D89FB00111246C2BC801DF91CF911F91FC
:1007C0000F910C94B303CF93DF93823028F0909174
:1007D000B70298609093B7028093BA0262E370E028
:1007E00080E090E00E94B1016091BD0282EB92E056
:1007F0000E94F00268EE73E080E090E00E94B10198
:1008000060E382EB92E00E94B303CBE4D6E4CE0136
:100810000197F1F760E382EB92E00E94B303219726
:10082000F1F760E382EB92E00E94B30383E592E08C
:100830000197F1F760E282EB92E00E94B3036091CE
:10084000B702606240E082EB92E00E94CC0384E059
:100850008093B80240E06CE082EB92E00E94CC030F
:1008600040E061E082EB92E00E94CC03CBE3DFE169
:10087000CE010197F1F782E08093B90240E066E093
:1008800082EB92E00E94CC0340E062E082EB92E0D7
:100890000E94CC032197F1F7DF91CF910895CF9378
:1008A000DF93CDB7DEB728970FB6F894DEBF0FBE43
:1008B000CDBF98E0E0E0F1E0DE01119601900D92ED
:1008C0009A95E1F79091BA02981708F48FEF90E0AB
:1008D000880F991F21E030E02C0F3D1F820F931FDE
:1008E000FC016081606840E082EB92E028960FB6E0
:1008F000F894DEBF0FBECDBFDF91CF910C94CC0337
:1009000041E00E94CC0381E090E008951F920F9295
:100910000FB60F9211242F933F934F935F936F93D2
:100920007F938F939F93AF93BF93EF93FF938091A8
:10093000B900887F803609F44AC0F0F5883209F49E
:10094000A7C018F5803109F49BC0B8F4882309F4D6
:10095000F9C0883009F494C0FF91EF91BF91AF9135
:100960009F918F917F916F915F914F913F912F91C7
:100970000F900FBE0F901F901895883109F488C012
:10098000803251F78093E20114C0803409F49DC095
:1009900040F48033B9F38833F9F68093E20185ECB3
:1009A000B0C0803509F485C0883509F496C0883414
:1009B00099F60E948700D0CF883909F48CC038F5A9
:1009C000883729F050F4883611F0803729F683E013
:1009D0008093E3011092E10157C0883809F47BC08D
:1009E000803919F0803809F0B7CF8091E101803269
:1009F00008F071C0E091E10181E08E0F8093E10188
:100A00008091BB00F0E0EF53FE4F80833DC0803B00
:100A100039F0E0F4803A09F479C0883A09F09CCFC3
:100A200084E08093E3011092BE011092BD01E09139
:100A3000BB01F091BC0109958091BD0181110FC0EE
:100A400081E08093BD0110929B0109C0803C09F4B4
:100A5000A6CF883C09F4A3CF883B09F07DCFE09175
:100A6000BE0181E08E0F8093BE01F0E0E556FE4F9F
:100A700080818093BB009091BE018091BD0129C00F
:100A8000809108028093BB0085EC8093BC0064CF0A
:100A90009091070280910602981758F5E09107029D
:100AA00081E08E0F80930702F0E0EA51FE4F8081D3
:100AB000E9CFE091070281E08E0F809307028091D9
:100AC000BB00F0E0EA51FE4F8083909107028091D5
:100AD00006029817C8F285E8D8CFE091070281E0B6
:100AE0008E0F809307028091BB00F0E0EA51FE4F29
:100AF00080838091E50181115CCF81E08093E401E6
:100B000084EA8093BC001092E30126CF85EC8093A9
:100B1000BC001092E3018091E101803230F4E09159
:100B2000E101F0E0EF53FE4F10826091E10170E0CF
:100B3000E091BF01F091C00181EC91E00995109224
:100B4000E1010ACF1092E20134CF1F920F920FB64B
:100B50000F9211242F933F938F939F93AF93BF9343
:100B600080914E0190914F01A0915001B09151019F
:100B700030914D0123E0230F2D3758F50196A11D2B
:100B8000B11D20934D0180934E0190934F01A0938E
:100B90005001B09351018091520190915301A09165
:100BA0005401B09155010196A11DB11D80935201D0
:100BB00090935301A0935401B0935501BF91AF910D
:100BC0009F918F913F912F910F900FBE0F901F908B
:100BD000189526E8230F0296A11DB11DD2CF1F92B2
:100BE0000F920FB60F9211242F933F934F935F9361
:100BF0006F937F938F939F93AF93BF93EF93FF93E5
:100C000085E192E00E946102FF91EF91BF91AF9167
:100C10009F918F917F916F915F914F913F912F9114
:100C20000F900FBE0F901F9018951F920F920FB646
:100C30000F9211242F938F939F93EF93FF93E09143
:100C40002502F09126028081E0912B02F0912C0286
:100C500082FD1BC0908180912E028F5F8F73209147
:100C60002F02821741F0E0912E02F0E0EB5EFD4F83
:100C7000958F80932E02FF91EF919F918F912F91ED
:100C80000F900FBE0F901F9018958081F4CFE9E070
:100C9000F2E01382128288EE93E0A0E0B0E0848359
:100CA0009583A683B7832CE031E031832083E5E18F
:100CB000F2E01382128284839583A683B7838EE148
:100CC00091E09183808385EC90E09587848784EC24
:100CD00090E09787868780EC90E0918B808B81EC09
:100CE00090E0938B828B82EC90E0958B848B86ECEA
:100CF00090E0978B868B118E128E138E148EE2EB02
:100D0000F2E01382128280E391E09183808387E294
:100D1000848380E1818782E08287138608957894B6
:100D200084B5826084BD84B5816084BD85B58260F0
:100D300085BD85B5816085BD80916E0081608093A1
:100D40006E0010928100809181008260809381000A
:100D5000809181008160809381008091800081601A
:100D6000809380008091B10084608093B100809175
:100D7000B00081608093B00080917A00846080939D
:100D80007A0080917A00826080937A0080917A0064
:100D9000816080937A0080917A00806880937A00E5
:100DA0001092C10082E00E94E30310929801109219
:100DB000970110929A01109299011092E30181E03B
:100DC0008093E5011092E40161E082E10E9440011C
:100DD00061E083E10E9440018091B9008E7F8093A1
:100DE000B9008091B9008D7F8093B90088E4809329
:100DF000B80085E48093BC0088EB90E09093BC0140
:100E00008093BB0189EB90E09093C0018093BF0178
:100E10001092B7028091BC020E94E303C8E0C09325
:100E2000BD0260E082EB92E00E94F002C093BD023E
:100E300060E082EB92E00E94F002E0912502F091E6
:100E4000260282E08083E0912102F091220210824A
:100E5000E0912302F09124028FEC808310922D0206
:100E6000E0912902F0912A0286E08083E091270236
:100E7000F0912802808180618083E0912702F091C7
:100E80002802808188608083E0912702F091280207
:100E9000808180688083E0912702F0912802808120
:100EA0008F7D808372E4B72ECBE9D0E007E810E0B5
:100EB000EFEACE2EE0E0DE2EF0E0EF2EF0E0FF2EA7
:100EC00080E00E944F0468E371E082EB92E00E94B0
:100ED000580381E00E944F0440904B0150904C0118
:100EE000052C000C660877082AE0B301A20177FE02
:100EF0000EC041E06DE282EB92E00E94CC034427F9
:100F00005527BA0144195509660977092AE082EB89
:100F100092E00E94670364E471E082EB92E00E9439
:100F20005803B0927C0080917A00806480937A00AC
:100F300080917A0086FDFCCF9091780080917900B5
:100F400089279827892790934A01809349012C018A
:100F5000092E000C660877082AE0B301A20197FF6A
:100F60000DC06DE285E192E00E948302442755277F
:100F7000BA0144195509660977092AE085E192E02A
:100F80000E94670364E471E085E192E00E945803E7
:100F90008091490190914A0197FD03969595879517
:100FA0009595879590934C0180934B01FE01449158
:100FB000F8012491222399F030E0220F331FF90128
:100FC000E859FF4FA591B491F901EE58FF4F2591D3
:100FD00034912FB7F8943C91432B4C932FBF00973B
:100FE00081F460E08BE00E944001E114F10409F417
:100FF00067CF0E944D02882309F462CF0E9400004F
:101000005FCF8F3F910511F461E0ECCFF6012491A1
:10101000233019F140F42130B1F02230C9F080388A
:10102000910594F7DECF273011F1283041F12430BB
:10103000B1F72091800020622093800090938B0074
:1010400080938A00D2CF94B5906894BD87BDCDCFF0
:1010500094B5906294BD88BDC8CF2091800020686F
:10106000209380009093890080938800BECF909158
:10107000B00090689093B0008093B300B6CF909189
:10108000B00090629093B0008093B400AECFA1E224
:101090001A2EAA1BBB1BFD010DC0AA1FBB1FEE1FF2
:1010A000FF1FA217B307E407F50720F0A21BB30B3D
:1010B000E40BF50B661F771F881F991F1A9469F7B9
:1010C00060957095809590959B01AC01BD01CF0115
:1010D0000895EE0FFF1F0590F491E02D0994F89408
:0210E000FFCF40
:1010E2000000400014005400000000001101E40060
:1010F2005503BA00DD00CA00BB00000000008302F5
:10110200E3011002D00241021F023302000000007C
:101112008004E301550354036272696768746E6563
:0811220073733A000D0A00008E
:00000001FF
