:100000000C9458000C9480000C9480000C94800098
:100010000C9480000C9480000C9480000C94800060
:100020000C9480000C9480000C9480000C94800050
:100030000C9480000C9480000C9480000C94800040
:100040000C949B050C9480000C940B060C94E50515
:100050000C9480000C9480000C9480000C94800020
:100060000C947C040C948000000000002500280003
:100070002B00040404040404040402020202020229
:10008000030303030303010204081020408001025C
:1000900004081020010204081020000000080002DB
:1000A00001000003040700000000000000003D06FE
:1000B00011241FBECFEFD8E0DEBFCDBF11E0A0E01E
:1000C000B1E0EAECFFE002C005900D92A834B10760
:1000D000D9F722E0A8E4B1E001C01D92AC3BB20721
:1000E000E1F710E0C8E5D0E004C02197FE010E94CE
:1000F000DD07C735D107C9F70E9485060C94E307D1
:100100000C94000090E0FC01E656FF4F2491FC01A6
:10011000EA57FF4F3491FC01EE58FF4FE491EE2374
:10012000B1F0222339F02330E9F090F4213001F1CD
:10013000223011F1F0E0EE0FFF1FE859FF4FA591BB
:10014000B4918FB7F894EC913E2B3C938FBF0895F8
:100150002730A9F02830C9F0243061F78091800061
:100160008F7D03C0809180008F7780938000E2CFE5
:1001700084B58F7784BDDECF84B58F7DFBCF809132
:10018000B0008F778093B000D5CF8091B0008F7D85
:10019000F9CF85ED8093BC008091BC0084FDFCCF3D
:1001A0001092E10108952091BB01260F3327331FE0
:1001B00021323105ECF42091E101FC0190E080E076
:1001C000243069F082E00895A091BB012191AC0137
:1001D00047565E4FA40FB52FB11D2C93019686177D
:1001E00098F38091BB01680F6093BB0180E0089594
:1001F00081E00895089508950895E0919601809111
:100200009501E81730F4F0E0EB58FE4F808190E064
:1002100008958FEF9FEF0895909196018091950139
:100220002FEF3FEF981748F4E92FF0E0EB58FE4F1F
:10023000208130E09F5F90939601C90108958091DD
:10024000950190919601891B990B0895CF92DF92A9
:10025000EF92FF920F931F93CF93DF937C01CB011B
:100260008A0120917401222389F0EB016B01C40EF5
:10027000D51ECC15DD0569F06991D701ED91FC9192
:100280000190F081E02DC7010995F3CF642F0E9402
:10029000D300C801DF91CF911F910F91FF90EF9094
:1002A000DF90CF900895CF93DF931F92CDB7DEB745
:1002B0006983209174012223F9F020919701203263
:1002C00058F021E030E0FC013383228390E080E0AD
:1002D0000F90DF91CF91089580919801E82FF0E081
:1002E000EC5AFE4F998190838F5F809398018093A1
:1002F000970181E090E0ECCF61E0CE0101960E9491
:10030000D300F7CF3FB7F8948091500190915101FD
:10031000A0915201B091530126B5A89B05C02F3F73
:1003200019F00196A11DB11D3FBFBA2FA92F982F1B
:100330008827BC01CD01620F711D811D911D42E016
:10034000660F771F881F991F4A95D1F708958F92DE
:100350009F92AF92BF92CF92DF92EF92FF924B01AA
:100360005C010E9482016B017C010E9482016C1978
:100370007D098E099F09683E734081059105A8F3A8
:1003800021E0821A9108A108B10888EEC80E83E026
:10039000D81EE11CF11C81149104A104B10429F7B9
:1003A000FF90EF90DF90CF90BF90AF909F908F9095
:1003B0000895AF92BF92CF92DF92EF92FF920F9388
:1003C0001F93CF93DF936C017B018B01040F151FEB
:1003D000EB015E01AE18BF08C017D10759F0699153
:1003E000D601ED91FC910190F081E02DC6010995B7
:1003F000892B79F7C501DF91CF911F910F91FF9064
:10040000EF90DF90CF90BF90AF900895FC01538D97
:10041000448D252F30E0842F90E0821B930B5417DE
:1004200010F0CF96089501970895FC01918D828D6B
:10043000981761F0A28DAE0FBF2FB11D5D968C9104
:10044000928D9F5F9F73928F90E008958FEF9FEF43
:100450000895FC01918D828D981731F0828DE80FFF
:10046000F11D858D90E008958FEF9FEF0895FC01B9
:10047000918D228D892F90E0805C9F4F821B910986
:100480008F739927089583E192E00E94370221E05B
:10049000892B09F420E0822F089580E090E0892BD9
:1004A00029F00E94430281110C9400000895FC0180
:1004B000A48DA80FB92FB11DA35ABF4F2C91848DC5
:1004C00090E001968F739927848FA689B7892C9322
:1004D000A089B1898C91837080648C93938D848D75
:1004E000981306C00288F389E02D80818F7D808378
:1004F0000895EF92FF920F931F93CF93DF93EC0138
:1005000081E0888F9B8D8C8D98131AC0E889F989BA
:10051000808185FF15C09FB7F894EE89FF896083BD
:10052000E889F98980818370806480839FBF81E03E
:1005300090E0DF91CF911F910F91FF90EF90089580
:10054000F62E0B8D10E00F5F1F4F0F731127E02E5B
:100550008C8D8E110CC00FB607FCFACFE889F98993
:10056000808185FFF5CFCE010E945702F1CFEB8D40
:10057000EC0FFD2FF11DE35AFF4FF0829FB7F89467
:100580000B8FEA89FB8980818062CFCFCF93DF9385
:10059000EC01888D8823B9F0AA89BB89E889F9899B
:1005A0008C9185FD03C0808186FD0DC00FB607FCD0
:1005B000F7CF8C9185FFF2CF808185FFEDCFCE0103
:1005C0000E945702E9CFDF91CF910895CF93FC01AC
:1005D000C48121E020937401C093480110929801D6
:1005E000109297018385682B87E092E00E94530167
:1005F00090919701913208F03FC08091E101811103
:10060000FCCF82E08093E10181E08093E3018FEFF2
:100610008093E0011092050290930402A4E5B1E0FA
:10062000E4EEF1E080E098132FC010920602809172
:100630000602CC0FC82BC09306028091E2018130E4
:1006400039F51092E201809106028093BB008091FF
:10065000BC0083FDF8CF85EC8093BC008091E10164
:100660008230E1F38091E0018F3F31F08091E00131
:10067000803211F08091E001109298011092970160
:1006800010927401CF9108952D9121938F5FCBCF5C
:1006900085EEE2CF089590E080E00895FB0101909F
:1006A0000020E9F73197AF01461B570BDC01ED91B4
:1006B000FC910280F381E02D09948F929F92AF927A
:1006C000BF92EF92FF920F931F93CF93DF93CDB71B
:1006D000DEB7A1970FB6F894DEBF0FBECDBF7C0189
:1006E000FA01CB0119A2223008F42AE08E010F5D35
:1006F0001F4F822E912CB12CA12CBF01A50194017A
:100700000E94BB07F901CA016A300CF5605DD8018F
:100710006E938D01232B242B252B79F790E080E01D
:10072000109721F0BD01C7010E944E03A1960FB69C
:10073000F894DEBF0FBECDBFDF91CF911F910F9117
:10074000FF90EF90BF90AF909F908F900895695C5D
:10075000DECF0F931F93CF938C01C62F0E94E6022A
:100760006C2F6460C8010E94E6026C2F6B7FC80189
:100770000E94E60283EC90E00197F1F7CF911F9180
:100780000F9108950F931F93CF93DF938C01D62F72
:10079000C42F607F642B0E94A90380E1D89FB00121
:1007A00011246C2BC801DF91CF911F910F910C94F4
:1007B000A903CF93DF93CDB7DEB728970FB6F89490
:1007C000DEBF0FBECDBF98E0E0E0F1E0DE011196A4
:1007D00001900D929A95E1F79091B802981708F45C
:1007E0008FEF90E0880F991F21E030E02C0F3D1F24
:1007F000820F931FFC016081606840E080EB92E013
:1008000028960FB6F894DEBF0FBECDBFDF91CF9113
:100810000C94C203CF93DF93823028F09091B502FD
:1008200098609093B5028093B80262E370E080E034
:1008300090E00E94A7016091BB0280EB92E00E94D1
:10084000E60268EE73E080E090E00E94A70160E3BA
:1008500080EB92E00E94A903CBE4D6E4CE0101979D
:10086000F1F760E380EB92E00E94A9032197F1F792
:1008700060E380EB92E00E94A90383E592E0019798
:10088000F1F760E280EB92E00E94A9036091B5026B
:10089000606240E080EB92E00E94C20384E08093BB
:1008A000B60240E06CE080EB92E00E94C20340E0C0
:1008B00061E080EB92E00E94C203CBE3DFE1CE0176
:1008C0000197F1F782E08093B70240E066E080EBA9
:1008D00092E00E94C20340E062E080EB92E00E945E
:1008E000C2032197F1F7DF91CF91089541E00E9473
:1008F000C20381E090E008951F920F920FB60F920D
:1009000011242F933F934F935F936F937F938F9314
:100910009F93AF93BF93EF93FF938091B900887F2C
:10092000803609F44AC0F0F5883209F4A7C018F5FA
:10093000803109F49BC0B8F4882309F4F9C08830E9
:1009400009F494C0FF91EF91BF91AF919F918F9166
:100950007F916F915F914F913F912F910F900FBEBB
:100960000F901F901895883109F488C0803251F794
:100970008093E00114C0803409F49DC040F48033BA
:10098000B9F38833F9F68093E00185ECB0C0803587
:1009900009F485C0883509F496C0883499F60E9418
:1009A000C900D0CF883909F48CC038F5883729F0D0
:1009B00050F4883611F0803729F683E08093E10106
:1009C0001092DF0157C0883809F47BC0803919F0D4
:1009D000803809F0B7CF8091DF01803208F071C014
:1009E000E091DF0181E08E0F8093DF018091BB00F9
:1009F000F0E0E154FE4F80833DC0803B39F0E0F4ED
:100A0000803A09F479C0883A09F09CCF84E0809359
:100A1000E1011092BC011092BB01E091B901F0918B
:100A2000BA0109958091BB0181110FC081E08093CB
:100A3000BB011092990109C0803C09F4A6CF883C03
:100A400009F4A3CF883B09F07DCFE091BC0181E0A0
:100A50008E0F8093BC01F0E0E756FE4F80818093BB
:100A6000BB009091BC018091BB0129C0809106021E
:100A70008093BB0085EC8093BC0064CF909105020D
:100A800080910402981758F5E091050281E08E0FDD
:100A900080930502F0E0EC51FE4F8081E9CFE091B8
:100AA000050281E08E0F809305028091BB00F0E08B
:100AB000EC51FE4F808390910502809104029817BB
:100AC000C8F285E8D8CFE091050281E08E0F8093CF
:100AD00005028091BB00F0E0EC51FE4F80838091D5
:100AE000E30181115CCF81E08093E20184EA80938D
:100AF000BC001092E10126CF85EC8093BC001092DF
:100B0000E1018091DF01803230F4E091DF01F0E01B
:100B1000E154FE4F10826091DF0170E0E091BD0171
:100B2000F091BE018FEB91E009951092DF010ACFA1
:100B30001092E00134CF1F920F920FB60F92112442
:100B40002F933F938F939F93AF93BF9380914C01CB
:100B500090914D01A0914E01B0914F0130914B0108
:100B600023E0230F2D3758F50196A11DB11D2093C9
:100B70004B0180934C0190934D01A0934E01B09393
:100B80004F018091500190915101A0915201B0917B
:100B900053010196A11DB11D809350019093510105
:100BA000A0935201B0935301BF91AF919F918F9148
:100BB0003F912F910F900FBE0F901F90189526E830
:100BC000230F0296A11DB11DD2CF1F920F920FB617
:100BD0000F9211242F933F934F935F936F937F93C3
:100BE0008F939F93AF93BF93EF93FF9383E192E033
:100BF0000E945702FF91EF91BF91AF919F918F910A
:100C00007F916F915F914F913F912F910F900FBE08
:100C10000F901F9018951F920F920FB60F921124EC
:100C20002F938F939F93EF93FF93E0912302F09183
:100C300024028081E0912902F0912A0282FD1BC0EA
:100C4000908180912C028F5F8F7320912D028217EB
:100C500041F0E0912C02F0E0ED5EFD4F958F809326
:100C60002C02FF91EF919F918F912F910F900FBECA
:100C70000F901F9018958081F4CFE7E0F2E0138287
:100C8000128288EE93E0A0E0B0E084839583A6838F
:100C9000B7832CE031E031832083E3E1F2E013827B
:100CA000128284839583A683B7838EE191E091833A
:100CB000808385EC90E09587848784EC90E097872B
:100CC000868780EC90E0918B808B81EC90E0938B19
:100CD000828B82EC90E0958B848B86EC90E0978BF6
:100CE000868B118E128E138E148EE0EBF2E013823F
:100CF000128280E391E09183808387E2848380E1A4
:100D0000818782E0828713860895789484B5826013
:100D100084BD84B5816084BD85B5826085BD85B59F
:100D2000816085BD80916E00816080936E0010921D
:100D30008100809181008260809381008091810098
:100D40008160809381008091800081608093800029
:100D50008091B10084608093B1008091B000816087
:100D60008093B00080917A00846080937A008091B3
:100D70007A00826080937A0080917A00816080930B
:100D80007A0080917A00806880937A001092C10086
:100D900082E00E940A04109296011092950110922E
:100DA0009801109297011092E10181E08093E30194
:100DB0001092E20182E10E94820083E10E9482009F
:100DC0008091B9008E7F8093B9008091B9008D7FAA
:100DD0008093B90088E48093B80085E48093BC00D8
:100DE0008AEF90E09093BA018093B9018BEF90E085
:100DF0009093BE018093BD011092B5028091BA021A
:100E00000E940A04C8E0C093BB0260E080EB92E05D
:100E10000E94E602C093BB0260E080EB92E00E9479
:100E2000E60280E00E94D90368E371E080EB92E083
:100E30000E944E03C0904901D0904A010D2C000C35
:100E4000EE08FF082AE0B701A601F7FE0EC041E058
:100E50006DE280EB92E00E94C20344275527BA015D
:100E60004C195D096E097F092AE080EB92E00E942F
:100E70005D0364E471E080EB92E00E944E03E09138
:100E80002302F091240282E08083E0911F02F0911E
:100E900020021082E0912102F09122028FEC8083E7
:100EA00010922B02E0912702F091280286E08083C5
:100EB000E0912502F0912602808180618083E0919B
:100EC0002502F0912602808188608083E0912502CE
:100ED000F0912602808180688083E0912502F09164
:100EE000260280818F7D808312E4C0E0D0E081E023
:100EF0000E94D90310937C0080917A0080648093D3
:100F00007A0080917A0086FDFCCF909178008091E4
:100F1000790089279827892790934A01809349016E
:100F20006C01092E000CEE08FF082AE0B701A601AB
:100F300097FF0DC06DE283E192E00E9479024427A1
:100F40005527BA014C195D096E097F092AE083E132
:100F500092E00E945D0364E471E083E192E00E940C
:100F60004E03209721F20E944302882309F4BFCF49
:100F70000E940000BCCFA1E21A2EAA1BBB1BFD01E0
:100F80000DC0AA1FBB1FEE1FFF1FA217B307E40768
:100F9000F50720F0A21BB30BE40BF50B661F771FC0
:100FA000881F991F1A9469F76095709580959095A0
:100FB0009B01AC01BD01CF010895EE0FFF1F05900D
:0A0FC000F491E02D0994F894FFCF9E
:100FCA0000004000140054000000000053012601F4
:100FDA004B03FC001F010C01FD0000000000790218
:100FEA00D9010602C60237021502290200000000D2
:100FFA007604D9014B034A036272696768746E65A5
:08100A0073733A000D0A0000A7
:00000001FF
