:100000000C945D000C9465020C943E020C948500E7
:100010000C9485000C9485000C9485000C9485004C
:100020000C9485000C9485000C9485000C9485003C
:100030000C9485000C9485000C9485000C9485002C
:100040000C94F4010C9485000C94B2020C948C0274
:100050000C9485000C9485000C9485000C9485000C
:100060000C9485000C9485000000000024002700FB
:100070002A0000000000250028002B0004040404CE
:100080000404040402020202020203030303030342
:10009000010204081020408001020408102001021F
:1000A00004081020000000080002010000030407FB
:1000B0000000000000000000330411241FBECFEF39
:1000C000D8E0DEBFCDBF11E0A0E0B1E0E4E1F9E0AF
:1000D00002C005900D92AA31B107D9F721E0AAE13B
:1000E000B1E001C01D92A43CB207E1F710E0CDE5FC
:1000F000D0E004C02197FE010E948204CC35D107D4
:10010000C9F70E94E4020C9488040C94000090E06B
:10011000FC01EC55FF4F2491FC01E057FF4F349157
:10012000FC01E458FF4FE491EE23C9F0222339F09B
:10013000233001F1A8F4213019F1223029F1F0E047
:10014000EE0FFF1FEE58FF4FA591B4918FB7F894B3
:10015000EC91611126C030953E233C938FBF0895EA
:100160002730A9F02830C9F0243049F78091800069
:100170008F7D03C0809180008F7780938000DFCFD8
:1001800084B58F7784BDDBCF84B58F7DFBCF809125
:10019000B0008F778093B000D2CF8091B0008F7D78
:1001A000F9CF3E2BDACF0895AF92BF92CF92DF9274
:1001B000EF92FF920F931F93CF93DF936C017B011C
:1001C0008B01040F151FEB015E01AE18BF08C017AD
:1001D000D10759F06991D601ED91FC910190F08120
:1001E000E02DC6010995892B79F7C501DF91CF91E3
:1001F0001F910F91FF90EF90DF90CF90BF90AF9045
:10020000089561E085E00E9487008091B901909196
:10021000BA0101969093BA018093B901089560E004
:1002200085E00E9487000895FC01538D448D252FA1
:1002300030E0842F90E0821B930B541710F0CF9680
:10024000089501970895FC01918D828D981761F0B2
:10025000A28DAE0FBF2FB11D5D968C91928D9F5FC9
:100260009F73928F90E008958FEF9FEF0895FC01A8
:10027000918D828D981731F0828DE80FF11D858D5B
:1002800090E008958FEF9FEF0895FC01918D228DEE
:10029000892F90E0805C9F4F821B91098F73992773
:1002A00008958AE191E00E94450121E0892B09F43B
:1002B00020E0822F089580E090E0892B29F00E94B1
:1002C000510181110C9400000895FC01A48DA80F28
:1002D000B92FB11DA35ABF4F2C91848D90E0019688
:1002E0008F739927848FA689B7892C93A089B189A8
:1002F0008C91837080648C93938D848D981306C049
:100300000288F389E02D80818F7D80830895EF92AC
:10031000FF920F931F93CF93DF93EC0181E0888FBF
:100320009B8D8C8D98131AC0E889F989808185FF8F
:1003300015C09FB7F894EE89FF896083E889F98931
:1003400080818370806480839FBF81E090E0DF9133
:10035000CF911F910F91FF90EF900895F62E0B8D86
:1003600010E00F5F1F4F0F731127E02E8C8D8E1141
:100370000CC00FB607FCFACFE889F989808185FFA8
:10038000F5CFCE010E946501F1CFEB8DEC0FFD2F73
:10039000F11DE35AFF4FF0829FB7F8940B8FEA8963
:1003A000FB8980818062CFCFCF93DF93EC01888D72
:1003B0008823B9F0AA89BB89E889F9898C9185FDE0
:1003C00003C0808186FD0DC00FB607FCF7CF8C916E
:1003D00085FFF2CF808185FFEDCFCE010E946501C0
:1003E000E9CFDF91CF9108951F920F920FB60F9230
:1003F00011242F933F938F939F93AF93BF9380913B
:10040000C0019091C101A091C201B091C30130918E
:10041000BF0123E0230F2D3758F50196A11DB11D13
:100420002093BF018093C0019093C101A093C201AA
:10043000B093C3018091BB019091BC01A091BD011B
:10044000B091BE010196A11DB11D8093BB01909397
:10045000BC01A093BD01B093BE01BF91AF919F912C
:100460008F913F912F910F900FBE0F901F90189575
:1004700026E8230F0296A11DB11DD2CF1F920F9225
:100480000FB60F9211242F933F934F935F936F9367
:100490007F938F939F93AF93BF93EF93FF93E091DD
:1004A0000201F09103010995FF91EF91BF91AF9186
:1004B0009F918F917F916F915F914F913F912F917C
:1004C0000F900FBE0F901F9018951F920F920FB6AE
:1004D0000F9211242F933F934F935F936F937F93CA
:1004E0008F939F93AF93BF93EF93FF93E09100019E
:1004F000F09101010995FF91EF91BF91AF919F910B
:100500008F917F916F915F914F913F912F910F90BC
:100510000FBE0F901F9018951F920F920FB60F925B
:1005200011242F933F934F935F936F937F938F93F8
:100530009F93AF93BF93EF93FF938AE191E00E9463
:100540006501FF91EF91BF91AF919F918F917F9145
:100550006F915F914F913F912F910F900FBE0F9030
:100560001F9018951F920F920FB60F9211242F9380
:100570008F939F93EF93FF93E0912A01F0912B01CA
:100580008081E0913001F091310182FD1BC09081AA
:10059000809133018F5F8F7320913401821741F076
:1005A000E0913301F0E0E65EFE4F958F80933301DA
:1005B000FF91EF919F918F912F910F900FBE0F9010
:1005C0001F9018958081F4CFCF93DF93CDB7DEB71E
:1005D000A1970FB6F894DEBF0FBECDBF789484B557
:1005E000826084BD84B5816084BD85B5826085BD2F
:1005F00085B5816085BD80916E00816080936E00BD
:1006000010928100809181008260809381008091AE
:10061000810081608093810080918000816080935F
:1006200080008091B10084608093B1008091B0001F
:1006300081608093B00080917A00846080937A001A
:1006400080917A00826080937A0080917A00816044
:1006500080937A0080917A00806880937A0010926B
:10066000C100E2E9F0E02491EEE7F0E08491882314
:10067000C9F090E0880F991FFC01E859FF4F4591A0
:100680005491FC01EE58FF4FA591B4919FB7F89497
:10069000FA013081822F809583238083EC91E22BB5
:1006A000EC939FBFE5E9F0E02491E1E8F0E084916C
:1006B000882399F090E0880F991FFC01E859FF4FBB
:1006C000A591B491FC01EE58FF4F859194918FB79D
:1006D000F894EC91E22BEC938FBFE0912A01F0911A
:1006E0002B0182E08083E0912601F09127011082A6
:1006F000E0912801F09129018FEC80831092320162
:10070000E0912E01F0912F0186E08083E0912C0191
:10071000F0912D01808180618083E0912C01F09126
:100720002D01808188608083E0912C01F0912D0162
:10073000808180688083E0912C01F0912D0180817F
:100740008F7D808381E091E090930101809300018F
:1007500080916900836080936900E89A8FE091E05E
:10076000909303018093020180916900837F8860E8
:1007700080936900E99A8AE0882E912CA12CB12CF3
:1007800000E010E0C090B901D090BA018091B701AB
:100790009091B801C816D906E1F10D2C000CEE08B5
:1007A000FF08F7FE4AC06DE28AE191E00E948701EE
:1007B00022273327A9012C193D094E095F0919A2E7
:1007C000CE0181967C01CA01B901A50194010E9464
:1007D0006004605DF70162937F01211531054105D9
:1007E000510589F7E114F10461F001900020E9F767
:1007F0003197AF014E195F09B7018AE191E00E947C
:10080000D40042E050E066E171E08AE191E00E94AC
:10081000D4008091B9019091BA019093B80180936E
:10082000B7010115110509F4ADCF0E9451018823CC
:1008300009F4A8CF0E940000A5CFA701960119A234
:10084000CE0181967C01CA01B901A50194010E94E3
:100850006004605DF70162937F0121153105410558
:10086000510589F7BFCFEAE1F1E01382128288EEE9
:1008700093E0A0E0B0E084839583A683B78388E00B
:1008800091E09183808385EC90E09587848784EC68
:1008900090E09787868780EC90E0918B808B81EC4D
:1008A00090E0938B828B82EC90E0958B848B86EC2E
:1008B00090E0978B868B118E128E138E148E089576
:1008C000A1E21A2EAA1BBB1BFD010DC0AA1FBB1F54
:1008D000EE1FFF1FA217B307E407F50720F0A21BC6
:1008E000B30BE40BF50B661F771F881F991F1A9433
:1008F00069F760957095809590959B01AC01BD015D
:10090000CF010895EE0FFF1F0590F491E02D09949B
:04091000F894FFCF89
:10091400D300D300000000008701D4001401D401E7
:0A0924004501230137010D0A000010
:00000001FF
